{"abi":[{"type":"constructor","inputs":[{"name":"_fanToken","type":"address","internalType":"address"},{"name":"_rewardToken","type":"address","internalType":"address"},{"name":"_seasonEnd","type":"uint256","internalType":"uint256"}],"stateMutability":"nonpayable"},{"type":"function","name":"claim","inputs":[],"outputs":[],"stateMutability":"nonpayable"},{"type":"function","name":"fanToken","inputs":[],"outputs":[{"name":"","type":"address","internalType":"contract IERC20"}],"stateMutability":"view"},{"type":"function","name":"rewardToken","inputs":[],"outputs":[{"name":"","type":"address","internalType":"contract IERC20"}],"stateMutability":"view"},{"type":"function","name":"rewards","inputs":[{"name":"","type":"address","internalType":"address"}],"outputs":[{"name":"","type":"uint256","internalType":"uint256"}],"stateMutability":"view"},{"type":"function","name":"seasonEnd","inputs":[],"outputs":[{"name":"","type":"uint256","internalType":"uint256"}],"stateMutability":"view"},{"type":"function","name":"stake","inputs":[{"name":"amount","type":"uint256","internalType":"uint256"}],"outputs":[],"stateMutability":"nonpayable"},{"type":"function","name":"staked","inputs":[{"name":"","type":"address","internalType":"address"}],"outputs":[{"name":"","type":"uint256","internalType":"uint256"}],"stateMutability":"view"},{"type":"function","name":"withdraw","inputs":[],"outputs":[],"stateMutability":"nonpayable"}],"bytecode":{"object":"0x6080604052348015600e575f5ffd5b50604051610715380380610715833981016040819052602b91607b565b5f80546001600160a01b039485166001600160a01b031991821617909155600180549390941692169190911790915560025560af565b80516001600160a01b03811681146076575f5ffd5b919050565b5f5f5f60608486031215608c575f5ffd5b6093846061565b9250609f602085016061565b9150604084015190509250925092565b610659806100bc5f395ff3fe608060405234801561000f575f5ffd5b5060043610610085575f3560e01c806398807d841161005857806398807d84146100f7578063a694fc3a14610116578063e757b20d14610129578063f7c618c114610132575f5ffd5b80630700037d146100895780633ccfd60b146100bb5780634e71d92d146100c557806375daa3de146100cd575b5f5ffd5b6100a861009736600461054a565b60046020525f908152604090205481565b6040519081526020015b60405180910390f35b6100c3610145565b005b6100c3610268565b5f546100df906001600160a01b031681565b6040516001600160a01b0390911681526020016100b2565b6100a861010536600461054a565b60036020525f908152604090205481565b6100c3610124366004610577565b61033f565b6100a860025481565b6001546100df906001600160a01b031681565b60025442101561018f5760405162461bcd60e51b815260206004820152601060248201526f14d9585cdbdb881b9bdd08195b99195960821b60448201526064015b60405180910390fd5b335f90815260036020526040902054806101e15760405162461bcd60e51b81526020600482015260136024820152724e6f7468696e6720746f20776974686472617760681b6044820152606401610186565b335f818152600360205260408082208290559054905163a9059cbb60e01b81526004810192909252602482018390526001600160a01b03169063a9059cbb906044015b6020604051808303815f875af1158015610240573d5f5f3e3d5ffd5b505050506040513d601f19601f82011682018060405250810190610264919061058e565b5050565b6002544210156102ad5760405162461bcd60e51b815260206004820152601060248201526f14d9585cdbdb881b9bdd08195b99195960821b6044820152606401610186565b335f90815260046020526040902054806102f55760405162461bcd60e51b8152602060048201526009602482015268139bc81c995dd85c9960ba1b6044820152606401610186565b335f81815260046020819052604080832092909255600154915163a9059cbb60e01b815290810192909252602482018390526001600160a01b03169063a9059cbb90604401610224565b600254421061037e5760405162461bcd60e51b815260206004820152600b60248201526a141bdbdb0818db1bdcd95960aa1b6044820152606401610186565b5f81116103c25760405162461bcd60e51b81526020600482015260126024820152710416d6f756e74206d757374206265203e20360741b6044820152606401610186565b5f546040516323b872dd60e01b8152336004820152306024820152604481018390526001600160a01b03909116906323b872dd906064016020604051808303815f875af1158015610415573d5f5f3e3d5ffd5b505050506040513d601f19601f82011682018060405250810190610439919061058e565b50335f90815260036020526040812080548392906104589084906105c1565b925050819055505f62093a80600254421061047557600254610477565b425b61048191906105da565b90505f62093a8060025461049591906105da565b6104a29062093a806105f9565b6002546104af9190610610565b9050804211156104d85762093a806104c78242610610565b6104d191906105da565b91506104dc565b5f91505b5f6104ef83670de0b6b3a76400006105f9565b6104f990856105c1565b335f9081526004602052604081208054929350839290919061051c9084906105c1565b9091555050335f908152600460205260408120805486929061053f9084906105c1565b909155505050505050565b5f6020828403121561055a575f5ffd5b81356001600160a01b0381168114610570575f5ffd5b9392505050565b5f60208284031215610587575f5ffd5b5035919050565b5f6020828403121561059e575f5ffd5b81518015158114610570575f5ffd5b634e487b7160e01b5f52601160045260245ffd5b808201808211156105d4576105d46105ad565b92915050565b5f826105f457634e487b7160e01b5f52601260045260245ffd5b500490565b80820281158282048414176105d4576105d46105ad565b818103818111156105d4576105d46105ad56fea26469706673582212204b09c0dc5ae55234fd0907c05a00281bd09fa9ac9a29c0e32f4c39db7da8dcda64736f6c634300081c0033","linkReferences":{}},"methodIdentifiers":{"claim()":"4e71d92d","fanToken()":"75daa3de","rewardToken()":"f7c618c1","rewards(address)":"0700037d","seasonEnd()":"e757b20d","stake(uint256)":"a694fc3a","staked(address)":"98807d84","withdraw()":"3ccfd60b"},"id":20}